{
  "_format": "hh-sol-artifact-1",
  "contractName": "TreasuryMILv4",
  "sourceName": "contracts/TreasuryMILv4.sol",
  "abi": [
    {
      "inputs": [],
      "stateMutability": "nonpayable",
      "type": "constructor"
    },
    {
      "anonymous": false,
      "inputs": [
        {
          "indexed": true,
          "internalType": "address",
          "name": "wallet",
          "type": "address"
        },
        {
          "indexed": true,
          "internalType": "address",
          "name": "token",
          "type": "address"
        },
        {
          "indexed": false,
          "internalType": "uint256",
          "name": "amount",
          "type": "uint256"
        }
      ],
      "name": "Deposit",
      "type": "event"
    },
    {
      "inputs": [
        {
          "internalType": "address",
          "name": "",
          "type": "address"
        }
      ],
      "name": "acceptedToken",
      "outputs": [
        {
          "internalType": "bool",
          "name": "",
          "type": "bool"
        }
      ],
      "stateMutability": "view",
      "type": "function"
    },
    {
      "inputs": [],
      "name": "dai",
      "outputs": [
        {
          "internalType": "contract ERC20",
          "name": "",
          "type": "address"
        }
      ],
      "stateMutability": "view",
      "type": "function"
    },
    {
      "inputs": [
        {
          "internalType": "address",
          "name": "_token",
          "type": "address"
        },
        {
          "internalType": "uint256",
          "name": "_lockerId",
          "type": "uint256"
        },
        {
          "internalType": "uint256",
          "name": "_amount",
          "type": "uint256"
        },
        {
          "internalType": "uint256",
          "name": "_lockUpTime",
          "type": "uint256"
        }
      ],
      "name": "deposit",
      "outputs": [
        {
          "internalType": "bool",
          "name": "",
          "type": "bool"
        }
      ],
      "stateMutability": "nonpayable",
      "type": "function"
    },
    {
      "inputs": [],
      "name": "fourYears",
      "outputs": [
        {
          "internalType": "uint256",
          "name": "",
          "type": "uint256"
        }
      ],
      "stateMutability": "view",
      "type": "function"
    },
    {
      "inputs": [],
      "name": "oneMonth",
      "outputs": [
        {
          "internalType": "uint256",
          "name": "",
          "type": "uint256"
        }
      ],
      "stateMutability": "view",
      "type": "function"
    },
    {
      "inputs": [],
      "name": "oneWeek",
      "outputs": [
        {
          "internalType": "uint256",
          "name": "",
          "type": "uint256"
        }
      ],
      "stateMutability": "view",
      "type": "function"
    },
    {
      "inputs": [],
      "name": "oneYear",
      "outputs": [
        {
          "internalType": "uint256",
          "name": "",
          "type": "uint256"
        }
      ],
      "stateMutability": "view",
      "type": "function"
    },
    {
      "inputs": [],
      "name": "owner",
      "outputs": [
        {
          "internalType": "address",
          "name": "",
          "type": "address"
        }
      ],
      "stateMutability": "view",
      "type": "function"
    },
    {
      "inputs": [],
      "name": "threeYears",
      "outputs": [
        {
          "internalType": "uint256",
          "name": "",
          "type": "uint256"
        }
      ],
      "stateMutability": "view",
      "type": "function"
    },
    {
      "inputs": [
        {
          "internalType": "uint256",
          "name": "",
          "type": "uint256"
        }
      ],
      "name": "tracker",
      "outputs": [
        {
          "internalType": "address",
          "name": "wallet",
          "type": "address"
        },
        {
          "internalType": "uint256",
          "name": "lockerId",
          "type": "uint256"
        },
        {
          "internalType": "address",
          "name": "token",
          "type": "address"
        },
        {
          "internalType": "uint256",
          "name": "amount",
          "type": "uint256"
        },
        {
          "internalType": "uint32",
          "name": "depositDate",
          "type": "uint32"
        },
        {
          "internalType": "uint256",
          "name": "lockUpTime",
          "type": "uint256"
        },
        {
          "internalType": "uint256",
          "name": "unlockDate",
          "type": "uint256"
        }
      ],
      "stateMutability": "view",
      "type": "function"
    },
    {
      "inputs": [],
      "name": "twoYears",
      "outputs": [
        {
          "internalType": "uint256",
          "name": "",
          "type": "uint256"
        }
      ],
      "stateMutability": "view",
      "type": "function"
    }
  ],
  "bytecode": "0x608060405262015180600561001491906100c1565b60025562015180601e61002791906100c1565b6003556301e133806004556301e13380600261004391906100c1565b6005556301e13380600361005791906100c1565b6006556301e13380600461006b91906100c1565b60075534801561007a57600080fd5b5033600160006101000a81548173ffffffffffffffffffffffffffffffffffffffff021916908373ffffffffffffffffffffffffffffffffffffffff160217905550610154565b60006100cc8261011b565b91506100d78361011b565b9250817fffffffffffffffffffffffffffffffffffffffffffffffffffffffffffffffff04831182151516156101105761010f610125565b5b828202905092915050565b6000819050919050565b7f4e487b7100000000000000000000000000000000000000000000000000000000600052601160045260246000fd5b610994806101636000396000f3fe608060405234801561001057600080fd5b50600436106100a95760003560e01c80637f4f099a116100715780637f4f099a1461016e5780638da5cb5b1461018c578063c8b18b5b146101aa578063ce88b439146101c8578063f27c3bf6146101f8578063f4b9fa7514610216576100a9565b80632cd11a1d146100ae57806339e9590f146100cc5780634661248c1461010257806346c678431461012057806355f5e7de1461013e575b600080fd5b6100b6610234565b6040516100c391906107fd565b60405180910390f35b6100e660048036038101906100e19190610692565b61023a565b6040516100f99796959493929190610758565b60405180910390f35b61010a6102dc565b60405161011791906107fd565b60405180910390f35b6101286102e2565b60405161013591906107fd565b60405180910390f35b610158600480360381019061015391906105dd565b6102e8565b60405161016591906107c7565b60405180910390f35b610176610308565b60405161018391906107fd565b60405180910390f35b61019461030e565b6040516101a19190610706565b60405180910390f35b6101b2610334565b6040516101bf91906107fd565b60405180910390f35b6101e260048036038101906101dd9190610606565b61033a565b6040516101ef91906107c7565b60405180910390f35b610200610580565b60405161020d91906107fd565b60405180910390f35b61021e610586565b60405161022b91906107e2565b60405180910390f35b60055481565b6008818154811061024a57600080fd5b90600052602060002090600702016000915090508060000160009054906101000a900473ffffffffffffffffffffffffffffffffffffffff16908060010154908060020160009054906101000a900473ffffffffffffffffffffffffffffffffffffffff16908060030154908060040160009054906101000a900463ffffffff16908060050154908060060154905087565b60065481565b60025481565b60006020528060005260406000206000915054906101000a900460ff1681565b60075481565b600160009054906101000a900473ffffffffffffffffffffffffffffffffffffffff1681565b60035481565b60008473ffffffffffffffffffffffffffffffffffffffff166323b872dd33600160009054906101000a900473ffffffffffffffffffffffffffffffffffffffff16866040518463ffffffff1660e01b815260040161039b93929190610721565b602060405180830381600087803b1580156103b557600080fd5b505af11580156103c9573d6000803e3d6000fd5b505050506040513d601f19601f820116820180604052508101906103ed9190610669565b5060086040518060e001604052803373ffffffffffffffffffffffffffffffffffffffff1681526020018681526020018773ffffffffffffffffffffffffffffffffffffffff1681526020018581526020014263ffffffff1681526020018463ffffffff16815260200184426104639190610818565b63ffffffff16815250908060018154018082558091505060019003906000526020600020906007020160009091909190915060008201518160000160006101000a81548173ffffffffffffffffffffffffffffffffffffffff021916908373ffffffffffffffffffffffffffffffffffffffff1602179055506020820151816001015560408201518160020160006101000a81548173ffffffffffffffffffffffffffffffffffffffff021916908373ffffffffffffffffffffffffffffffffffffffff1602179055506060820151816003015560808201518160040160006101000a81548163ffffffff021916908363ffffffff16021790555060a0820151816005015560c08201518160060155505060019050949350505050565b60045481565b734f96fe3b7a6cf9725f59d353f723c1bdb64ca6aa81565b6000813590506105ad81610919565b92915050565b6000815190506105c281610930565b92915050565b6000813590506105d781610947565b92915050565b6000602082840312156105ef57600080fd5b60006105fd8482850161059e565b91505092915050565b6000806000806080858703121561061c57600080fd5b600061062a8782880161059e565b945050602061063b878288016105c8565b935050604061064c878288016105c8565b925050606061065d878288016105c8565b91505092959194509250565b60006020828403121561067b57600080fd5b6000610689848285016105b3565b91505092915050565b6000602082840312156106a457600080fd5b60006106b2848285016105c8565b91505092915050565b6106c48161086e565b82525050565b6106d381610880565b82525050565b6106e2816108c6565b82525050565b6106f1816108ac565b82525050565b610700816108b6565b82525050565b600060208201905061071b60008301846106bb565b92915050565b600060608201905061073660008301866106bb565b61074360208301856106bb565b61075060408301846106e8565b949350505050565b600060e08201905061076d600083018a6106bb565b61077a60208301896106e8565b61078760408301886106bb565b61079460608301876106e8565b6107a160808301866106f7565b6107ae60a08301856106e8565b6107bb60c08301846106e8565b98975050505050505050565b60006020820190506107dc60008301846106ca565b92915050565b60006020820190506107f760008301846106d9565b92915050565b600060208201905061081260008301846106e8565b92915050565b6000610823826108ac565b915061082e836108ac565b9250827fffffffffffffffffffffffffffffffffffffffffffffffffffffffffffffffff03821115610863576108626108ea565b5b828201905092915050565b60006108798261088c565b9050919050565b60008115159050919050565b600073ffffffffffffffffffffffffffffffffffffffff82169050919050565b6000819050919050565b600063ffffffff82169050919050565b60006108d1826108d8565b9050919050565b60006108e38261088c565b9050919050565b7f4e487b7100000000000000000000000000000000000000000000000000000000600052601160045260246000fd5b6109228161086e565b811461092d57600080fd5b50565b61093981610880565b811461094457600080fd5b50565b610950816108ac565b811461095b57600080fd5b5056fea264697066735822122096165aa1cc5001825443f21e82a10847189e30b3f27f1a3d19a57a056828468664736f6c63430008040033",
  "linkReferences": {},
  "deployedLinkReferences": {}
}