{
  "_format": "hh-sol-artifact-1",
  "contractName": "PreSale",
  "sourceName": "contracts/PreSale.sol",
  "abi": [
    {
      "inputs": [
        {
          "internalType": "address",
          "name": "_DAI",
          "type": "address"
        }
      ],
      "stateMutability": "nonpayable",
      "type": "constructor"
    },
    {
      "inputs": [],
      "name": "getAllUsers",
      "outputs": [
        {
          "components": [
            {
              "internalType": "address",
              "name": "userAddress",
              "type": "address"
            },
            {
              "internalType": "uint256",
              "name": "userPrice",
              "type": "uint256"
            }
          ],
          "internalType": "struct PreSale.UserStruct[]",
          "name": "",
          "type": "tuple[]"
        }
      ],
      "stateMutability": "view",
      "type": "function"
    },
    {
      "inputs": [],
      "name": "getBalanceOfIDO",
      "outputs": [
        {
          "internalType": "uint256",
          "name": "totalBalance",
          "type": "uint256"
        }
      ],
      "stateMutability": "view",
      "type": "function"
    },
    {
      "inputs": [],
      "name": "getUserCount",
      "outputs": [
        {
          "internalType": "uint256",
          "name": "usersArrayLength",
          "type": "uint256"
        }
      ],
      "stateMutability": "view",
      "type": "function"
    },
    {
      "inputs": [
        {
          "internalType": "address",
          "name": "userAddress",
          "type": "address"
        }
      ],
      "name": "isUserInContract",
      "outputs": [
        {
          "internalType": "bool",
          "name": "isIndeed",
          "type": "bool"
        }
      ],
      "stateMutability": "view",
      "type": "function"
    },
    {
      "inputs": [
        {
          "internalType": "address",
          "name": "userAddress",
          "type": "address"
        },
        {
          "internalType": "uint256",
          "name": "userPrice",
          "type": "uint256"
        }
      ],
      "name": "newUser",
      "outputs": [
        {
          "internalType": "uint256",
          "name": "userIndexPosition",
          "type": "uint256"
        }
      ],
      "stateMutability": "nonpayable",
      "type": "function"
    },
    {
      "inputs": [
        {
          "internalType": "uint256",
          "name": "_amount",
          "type": "uint256"
        }
      ],
      "name": "purchaseIDO",
      "outputs": [],
      "stateMutability": "nonpayable",
      "type": "function"
    },
    {
      "inputs": [
        {
          "internalType": "uint256",
          "name": "",
          "type": "uint256"
        }
      ],
      "name": "users",
      "outputs": [
        {
          "internalType": "address",
          "name": "userAddress",
          "type": "address"
        },
        {
          "internalType": "uint256",
          "name": "userPrice",
          "type": "uint256"
        }
      ],
      "stateMutability": "view",
      "type": "function"
    }
  ],
  "bytecode": "0x60806040526101f46000556103e860015534801561001c57600080fd5b50604051610cdf380380610cdf833981810160405281019061003e91906100eb565b600073ffffffffffffffffffffffffffffffffffffffff168173ffffffffffffffffffffffffffffffffffffffff16141561007857600080fd5b6001600660008373ffffffffffffffffffffffffffffffffffffffff1673ffffffffffffffffffffffffffffffffffffffff16815260200190815260200160002060006101000a81548160ff0219169083151502179055505061015d565b6000815190506100e581610146565b92915050565b6000602082840312156100fd57600080fd5b600061010b848285016100d6565b91505092915050565b600061011f82610126565b9050919050565b600073ffffffffffffffffffffffffffffffffffffffff82169050919050565b61014f81610114565b811461015a57600080fd5b50565b610b738061016c6000396000f3fe608060405234801561001057600080fd5b506004361061007d5760003560e01c8063512ea7ba1161005b578063512ea7ba146100ed578063b5cb15f71461011d578063e2842d791461013b578063f9ac505b146101595761007d565b80631a16231814610082578063365b98b21461009e57806343be912c146100cf575b600080fd5b61009c6004803603810190610097919061071a565b610189565b005b6100b860048036038101906100b3919061071a565b61031e565b6040516100c692919061089c565b60405180910390f35b6100d7610372565b6040516100e49190610962565b60405180910390f35b610107600480360381019061010291906106b5565b61037a565b60405161011491906108e7565b60405180910390f35b6101256103d0565b6040516101329190610962565b60405180910390f35b6101436103dd565b60405161015091906108c5565b60405180910390f35b610173600480360381019061016e91906106de565b61049c565b6040516101809190610962565b60405180910390f35b600460003373ffffffffffffffffffffffffffffffffffffffff1673ffffffffffffffffffffffffffffffffffffffff16815260200190815260200160002060009054906101000a900460ff1615610216576040517f08c379a000000000000000000000000000000000000000000000000000000000815260040161020d90610902565b60405180910390fd5b6101f481148061022757506103e881145b610266576040517f08c379a000000000000000000000000000000000000000000000000000000000815260040161025d90610922565b60405180910390fd5b806002600082825461027891906109c7565b925050819055506001600460003373ffffffffffffffffffffffffffffffffffffffff1673ffffffffffffffffffffffffffffffffffffffff16815260200190815260200160002060006101000a81548160ff02191690831515021790555080600560003373ffffffffffffffffffffffffffffffffffffffff1673ffffffffffffffffffffffffffffffffffffffff1681526020019081526020016000208190555050565b6003818154811061032e57600080fd5b90600052602060002090600202016000915090508060000160009054906101000a900473ffffffffffffffffffffffffffffffffffffffff16908060010154905082565b600047905090565b6000600460008373ffffffffffffffffffffffffffffffffffffffff1673ffffffffffffffffffffffffffffffffffffffff16815260200190815260200160002060009054906101000a900460ff169050919050565b6000600380549050905090565b60606003805480602002602001604051908101604052809291908181526020016000905b8282101561049357838290600052602060002090600202016040518060400160405290816000820160009054906101000a900473ffffffffffffffffffffffffffffffffffffffff1673ffffffffffffffffffffffffffffffffffffffff1673ffffffffffffffffffffffffffffffffffffffff16815260200160018201548152505081526020019060010190610401565b50505050905090565b6000600460008473ffffffffffffffffffffffffffffffffffffffff1673ffffffffffffffffffffffffffffffffffffffff16815260200190815260200160002060009054906101000a900460ff161561052b576040517f08c379a000000000000000000000000000000000000000000000000000000000815260040161052290610942565b60405180910390fd5b61053361065b565b83816000019073ffffffffffffffffffffffffffffffffffffffff16908173ffffffffffffffffffffffffffffffffffffffff1681525050828160200181815250506001600460008673ffffffffffffffffffffffffffffffffffffffff1673ffffffffffffffffffffffffffffffffffffffff16815260200190815260200160002060006101000a81548160ff021916908315150217905550600381908060018154018082558091505060019003906000526020600020906002020160009091909190915060008201518160000160006101000a81548173ffffffffffffffffffffffffffffffffffffffff021916908373ffffffffffffffffffffffffffffffffffffffff16021790555060208201518160010155505060038054905091505092915050565b6040518060400160405280600073ffffffffffffffffffffffffffffffffffffffff168152602001600081525090565b60008135905061069a81610b0f565b92915050565b6000813590506106af81610b26565b92915050565b6000602082840312156106c757600080fd5b60006106d58482850161068b565b91505092915050565b600080604083850312156106f157600080fd5b60006106ff8582860161068b565b9250506020610710858286016106a0565b9150509250929050565b60006020828403121561072c57600080fd5b600061073a848285016106a0565b91505092915050565b600061074f838361084f565b60408301905092915050565b61076481610a1d565b82525050565b61077381610a1d565b82525050565b60006107848261098d565b61078e81856109a5565b93506107998361097d565b8060005b838110156107ca5781516107b18882610743565b97506107bc83610998565b92505060018101905061079d565b5085935050505092915050565b6107e081610a2f565b82525050565b60006107f3601e836109b6565b91506107fe82610a94565b602082019050919050565b60006108166020836109b6565b915061082182610abd565b602082019050919050565b60006108396015836109b6565b915061084482610ae6565b602082019050919050565b604082016000820151610865600085018261075b565b506020820151610878602085018261087e565b50505050565b61088781610a5b565b82525050565b61089681610a5b565b82525050565b60006040820190506108b1600083018561076a565b6108be602083018461088d565b9392505050565b600060208201905081810360008301526108df8184610779565b905092915050565b60006020820190506108fc60008301846107d7565b92915050565b6000602082019050818103600083015261091b816107e6565b9050919050565b6000602082019050818103600083015261093b81610809565b9050919050565b6000602082019050818103600083015261095b8161082c565b9050919050565b6000602082019050610977600083018461088d565b92915050565b6000819050602082019050919050565b600081519050919050565b6000602082019050919050565b600082825260208201905092915050565b600082825260208201905092915050565b60006109d282610a5b565b91506109dd83610a5b565b9250827fffffffffffffffffffffffffffffffffffffffffffffffffffffffffffffffff03821115610a1257610a11610a65565b5b828201905092915050565b6000610a2882610a3b565b9050919050565b60008115159050919050565b600073ffffffffffffffffffffffffffffffffffffffff82169050919050565b6000819050919050565b7f4e487b7100000000000000000000000000000000000000000000000000000000600052601160045260246000fd5b7f557365722068617320616c7265616479207075726368617365642049444f0000600082015250565b7f417267756d656e7420776173206e6f7420353030206f722031303030204d494d600082015250565b7f5573657220616c72656164792075706c6f616465640000000000000000000000600082015250565b610b1881610a1d565b8114610b2357600080fd5b50565b610b2f81610a5b565b8114610b3a57600080fd5b5056fea2646970667358221220f98676d2a57b9472380a12fe72193ec9608b0b614056246717bd166d8cae966964736f6c63430008040033",
  "linkReferences": {},
  "deployedLinkReferences": {}
}