{
  "_format": "hh-sol-artifact-1",
  "contractName": "PreSale",
  "sourceName": "contracts/PreSale.sol",
  "abi": [
    {
      "inputs": [
        {
          "internalType": "address",
          "name": "_DAI",
          "type": "address"
        }
      ],
      "stateMutability": "nonpayable",
      "type": "constructor"
    },
    {
      "inputs": [],
      "name": "getAllUsers",
      "outputs": [
        {
          "components": [
            {
              "internalType": "address",
              "name": "userAddress",
              "type": "address"
            },
            {
              "internalType": "uint256",
              "name": "userPrice",
              "type": "uint256"
            }
          ],
          "internalType": "struct PreSale.UserStruct[]",
          "name": "",
          "type": "tuple[]"
        }
      ],
      "stateMutability": "view",
      "type": "function"
    },
    {
      "inputs": [],
      "name": "getBalanceOfIDO",
      "outputs": [
        {
          "internalType": "uint256",
          "name": "totalBalance",
          "type": "uint256"
        }
      ],
      "stateMutability": "view",
      "type": "function"
    },
    {
      "inputs": [],
      "name": "getUserCount",
      "outputs": [
        {
          "internalType": "uint256",
          "name": "usersArrayLength",
          "type": "uint256"
        }
      ],
      "stateMutability": "view",
      "type": "function"
    },
    {
      "inputs": [
        {
          "internalType": "address",
          "name": "userAddress",
          "type": "address"
        }
      ],
      "name": "isUserInContract",
      "outputs": [
        {
          "internalType": "bool",
          "name": "isIndeed",
          "type": "bool"
        }
      ],
      "stateMutability": "view",
      "type": "function"
    },
    {
      "inputs": [
        {
          "internalType": "address",
          "name": "userAddress",
          "type": "address"
        },
        {
          "internalType": "uint256",
          "name": "userPrice",
          "type": "uint256"
        }
      ],
      "name": "newUser",
      "outputs": [
        {
          "internalType": "uint256",
          "name": "userIndexPosition",
          "type": "uint256"
        }
      ],
      "stateMutability": "nonpayable",
      "type": "function"
    },
    {
      "inputs": [
        {
          "internalType": "uint256",
          "name": "_amount",
          "type": "uint256"
        },
        {
          "internalType": "address",
          "name": "_token",
          "type": "address"
        }
      ],
      "name": "purchaseIDO",
      "outputs": [
        {
          "internalType": "uint256",
          "name": "totalContractBalance",
          "type": "uint256"
        }
      ],
      "stateMutability": "nonpayable",
      "type": "function"
    },
    {
      "inputs": [
        {
          "internalType": "uint256",
          "name": "",
          "type": "uint256"
        }
      ],
      "name": "users",
      "outputs": [
        {
          "internalType": "address",
          "name": "userAddress",
          "type": "address"
        },
        {
          "internalType": "uint256",
          "name": "userPrice",
          "type": "uint256"
        }
      ],
      "stateMutability": "view",
      "type": "function"
    }
  ],
  "bytecode": "0x60806040526101f46000556103e860015534801561001c57600080fd5b50604051610f4b380380610f4b833981810160405281019061003e91906100eb565b600073ffffffffffffffffffffffffffffffffffffffff168173ffffffffffffffffffffffffffffffffffffffff16141561007857600080fd5b6001600660008373ffffffffffffffffffffffffffffffffffffffff1673ffffffffffffffffffffffffffffffffffffffff16815260200190815260200160002060006101000a81548160ff0219169083151502179055505061015d565b6000815190506100e581610146565b92915050565b6000602082840312156100fd57600080fd5b600061010b848285016100d6565b91505092915050565b600061011f82610126565b9050919050565b600073ffffffffffffffffffffffffffffffffffffffff82169050919050565b61014f81610114565b811461015a57600080fd5b50565b610ddf8061016c6000396000f3fe608060405234801561001057600080fd5b506004361061007d5760003560e01c8063adbd3d3f1161005b578063adbd3d3f14610101578063b5cb15f714610131578063e2842d791461014f578063f9ac505b1461016d5761007d565b8063365b98b21461008257806343be912c146100b3578063512ea7ba146100d1575b600080fd5b61009c60048036038101906100979190610890565b61019d565b6040516100aa929190610aa8565b60405180910390f35b6100bb6101f1565b6040516100c89190610b8e565b60405180910390f35b6100eb60048036038101906100e69190610802565b6101f9565b6040516100f89190610af3565b60405180910390f35b61011b600480360381019061011691906108b9565b61024f565b6040516101289190610b8e565b60405180910390f35b610139610508565b6040516101469190610b8e565b60405180910390f35b610157610515565b6040516101649190610ad1565b60405180910390f35b6101876004803603810190610182919061082b565b6105d4565b6040516101949190610b8e565b60405180910390f35b600381815481106101ad57600080fd5b90600052602060002090600202016000915090508060000160009054906101000a900473ffffffffffffffffffffffffffffffffffffffff16908060010154905082565b600047905090565b6000600460008373ffffffffffffffffffffffffffffffffffffffff1673ffffffffffffffffffffffffffffffffffffffff16815260200190815260200160002060009054906101000a900460ff169050919050565b6000600660008373ffffffffffffffffffffffffffffffffffffffff1673ffffffffffffffffffffffffffffffffffffffff16815260200190815260200160002060009054906101000a900460ff166102dd576040517f08c379a00000000000000000000000000000000000000000000000000000000081526004016102d490610b4e565b60405180910390fd5b600460003373ffffffffffffffffffffffffffffffffffffffff1673ffffffffffffffffffffffffffffffffffffffff16815260200190815260200160002060009054906101000a900460ff161561036a576040517f08c379a000000000000000000000000000000000000000000000000000000000815260040161036190610b0e565b60405180910390fd5b6101f483148061037b57506103e883145b6103ba576040517f08c379a00000000000000000000000000000000000000000000000000000000081526004016103b190610b2e565b60405180910390fd5b8173ffffffffffffffffffffffffffffffffffffffff166323b872dd3330866040518463ffffffff1660e01b81526004016103f793929190610a71565b602060405180830381600087803b15801561041157600080fd5b505af1158015610425573d6000803e3d6000fd5b505050506040513d601f19601f820116820180604052508101906104499190610867565b50826002600082825461045c9190610bf3565b925050819055506001600460003373ffffffffffffffffffffffffffffffffffffffff1673ffffffffffffffffffffffffffffffffffffffff16815260200190815260200160002060006101000a81548160ff02191690831515021790555082600560003373ffffffffffffffffffffffffffffffffffffffff1673ffffffffffffffffffffffffffffffffffffffff1681526020019081526020016000208190555047905092915050565b6000600380549050905090565b60606003805480602002602001604051908101604052809291908181526020016000905b828210156105cb57838290600052602060002090600202016040518060400160405290816000820160009054906101000a900473ffffffffffffffffffffffffffffffffffffffff1673ffffffffffffffffffffffffffffffffffffffff1673ffffffffffffffffffffffffffffffffffffffff16815260200160018201548152505081526020019060010190610539565b50505050905090565b6000600460008473ffffffffffffffffffffffffffffffffffffffff1673ffffffffffffffffffffffffffffffffffffffff16815260200190815260200160002060009054906101000a900460ff1615610663576040517f08c379a000000000000000000000000000000000000000000000000000000000815260040161065a90610b6e565b60405180910390fd5b61066b610793565b83816000019073ffffffffffffffffffffffffffffffffffffffff16908173ffffffffffffffffffffffffffffffffffffffff1681525050828160200181815250506001600460008673ffffffffffffffffffffffffffffffffffffffff1673ffffffffffffffffffffffffffffffffffffffff16815260200190815260200160002060006101000a81548160ff021916908315150217905550600381908060018154018082558091505060019003906000526020600020906002020160009091909190915060008201518160000160006101000a81548173ffffffffffffffffffffffffffffffffffffffff021916908373ffffffffffffffffffffffffffffffffffffffff16021790555060208201518160010155505060038054905091505092915050565b6040518060400160405280600073ffffffffffffffffffffffffffffffffffffffff168152602001600081525090565b6000813590506107d281610d64565b92915050565b6000815190506107e781610d7b565b92915050565b6000813590506107fc81610d92565b92915050565b60006020828403121561081457600080fd5b6000610822848285016107c3565b91505092915050565b6000806040838503121561083e57600080fd5b600061084c858286016107c3565b925050602061085d858286016107ed565b9150509250929050565b60006020828403121561087957600080fd5b6000610887848285016107d8565b91505092915050565b6000602082840312156108a257600080fd5b60006108b0848285016107ed565b91505092915050565b600080604083850312156108cc57600080fd5b60006108da858286016107ed565b92505060206108eb858286016107c3565b9150509250929050565b60006109018383610a24565b60408301905092915050565b61091681610c49565b82525050565b61092581610c49565b82525050565b600061093682610bb9565b6109408185610bd1565b935061094b83610ba9565b8060005b8381101561097c57815161096388826108f5565b975061096e83610bc4565b92505060018101905061094f565b5085935050505092915050565b61099281610c5b565b82525050565b60006109a5601e83610be2565b91506109b082610cc0565b602082019050919050565b60006109c8602083610be2565b91506109d382610ce9565b602082019050919050565b60006109eb601283610be2565b91506109f682610d12565b602082019050919050565b6000610a0e601583610be2565b9150610a1982610d3b565b602082019050919050565b604082016000820151610a3a600085018261090d565b506020820151610a4d6020850182610a53565b50505050565b610a5c81610c87565b82525050565b610a6b81610c87565b82525050565b6000606082019050610a86600083018661091c565b610a93602083018561091c565b610aa06040830184610a62565b949350505050565b6000604082019050610abd600083018561091c565b610aca6020830184610a62565b9392505050565b60006020820190508181036000830152610aeb818461092b565b905092915050565b6000602082019050610b086000830184610989565b92915050565b60006020820190508181036000830152610b2781610998565b9050919050565b60006020820190508181036000830152610b47816109bb565b9050919050565b60006020820190508181036000830152610b67816109de565b9050919050565b60006020820190508181036000830152610b8781610a01565b9050919050565b6000602082019050610ba36000830184610a62565b92915050565b6000819050602082019050919050565b600081519050919050565b6000602082019050919050565b600082825260208201905092915050565b600082825260208201905092915050565b6000610bfe82610c87565b9150610c0983610c87565b9250827fffffffffffffffffffffffffffffffffffffffffffffffffffffffffffffffff03821115610c3e57610c3d610c91565b5b828201905092915050565b6000610c5482610c67565b9050919050565b60008115159050919050565b600073ffffffffffffffffffffffffffffffffffffffff82169050919050565b6000819050919050565b7f4e487b7100000000000000000000000000000000000000000000000000000000600052601160045260246000fd5b7f557365722068617320616c7265616479207075726368617365642049444f0000600082015250565b7f417267756d656e7420776173206e6f7420353030206f722031303030204d494d600082015250565b7f546f6b656e206e6f742061636365707465640000000000000000000000000000600082015250565b7f5573657220616c72656164792075706c6f616465640000000000000000000000600082015250565b610d6d81610c49565b8114610d7857600080fd5b50565b610d8481610c5b565b8114610d8f57600080fd5b50565b610d9b81610c87565b8114610da657600080fd5b5056fea264697066735822122071c83684ea3e5f3f44c969c7811e6f0a3dd206dc0dcbda2a942acf5178cc792264736f6c63430008040033",
  "linkReferences": {},
  "deployedLinkReferences": {}
}