{
  "_format": "hh-sol-artifact-1",
  "contractName": "PreSaleKovan",
  "sourceName": "contracts/PreSaleKovan.sol",
  "abi": [
    {
      "anonymous": false,
      "inputs": [
        {
          "indexed": false,
          "internalType": "address",
          "name": "investor",
          "type": "address"
        },
        {
          "indexed": false,
          "internalType": "uint256",
          "name": "purchaseAmount",
          "type": "uint256"
        }
      ],
      "name": "newInvestor",
      "type": "event"
    },
    {
      "anonymous": false,
      "inputs": [
        {
          "indexed": false,
          "internalType": "uint256",
          "name": "amount",
          "type": "uint256"
        }
      ],
      "name": "totalAmountPurchased",
      "type": "event"
    },
    {
      "inputs": [],
      "name": "dai",
      "outputs": [
        {
          "internalType": "contract ERC20",
          "name": "",
          "type": "address"
        }
      ],
      "stateMutability": "view",
      "type": "function"
    },
    {
      "inputs": [],
      "name": "getAllUsers",
      "outputs": [
        {
          "components": [
            {
              "internalType": "address",
              "name": "userAddress",
              "type": "address"
            },
            {
              "internalType": "uint256",
              "name": "userPrice",
              "type": "uint256"
            }
          ],
          "internalType": "struct PreSaleKovan.UserStruct[]",
          "name": "",
          "type": "tuple[]"
        }
      ],
      "stateMutability": "view",
      "type": "function"
    },
    {
      "inputs": [],
      "name": "getTotalAmount",
      "outputs": [
        {
          "internalType": "uint256",
          "name": "TotalPurchased",
          "type": "uint256"
        }
      ],
      "stateMutability": "nonpayable",
      "type": "function"
    },
    {
      "inputs": [
        {
          "internalType": "uint256",
          "name": "_amount",
          "type": "uint256"
        }
      ],
      "name": "purchaseIDO",
      "outputs": [],
      "stateMutability": "nonpayable",
      "type": "function"
    },
    {
      "inputs": [],
      "name": "totalPurchased",
      "outputs": [
        {
          "internalType": "uint256",
          "name": "",
          "type": "uint256"
        }
      ],
      "stateMutability": "view",
      "type": "function"
    },
    {
      "inputs": [
        {
          "internalType": "address",
          "name": "_user",
          "type": "address"
        }
      ],
      "name": "userCheck",
      "outputs": [
        {
          "internalType": "bool",
          "name": "userExists",
          "type": "bool"
        }
      ],
      "stateMutability": "view",
      "type": "function"
    },
    {
      "inputs": [
        {
          "internalType": "uint256",
          "name": "",
          "type": "uint256"
        }
      ],
      "name": "users",
      "outputs": [
        {
          "internalType": "address",
          "name": "userAddress",
          "type": "address"
        },
        {
          "internalType": "uint256",
          "name": "userPrice",
          "type": "uint256"
        }
      ],
      "stateMutability": "view",
      "type": "function"
    }
  ],
  "bytecode": "0x6080604052681b1ae4d6e2ef500000600355683635c9adc5dea0000060045534801561002a57600080fd5b50610df48061003a6000396000f3fe608060405234801561001057600080fd5b506004361061007d5760003560e01c806365ac43411161005b57806365ac4341146100ff578063e2842d791461011d578063e632c2f31461013b578063f4b9fa75146101595761007d565b80631a16231814610082578063365b98b21461009e578063572c52ca146100cf575b600080fd5b61009c6004803603810190610097919061086d565b610177565b005b6100b860048036038101906100b3919061086d565b6103f2565b6040516100c6929190610a58565b60405180910390f35b6100e960048036038101906100e4919061081b565b610446565b6040516100f69190610aa3565b60405180910390f35b6101076104dd565b6040516101149190610b59565b60405180910390f35b610125610520565b6040516101329190610a81565b60405180910390f35b6101436105df565b6040516101509190610b59565b60405180910390f35b6101616105e5565b60405161016e9190610abe565b60405180910390f35b600160003373ffffffffffffffffffffffffffffffffffffffff1673ffffffffffffffffffffffffffffffffffffffff16815260200190815260200160002060009054906101000a900460ff1615610204576040517f08c379a00000000000000000000000000000000000000000000000000000000081526004016101fb90610af9565b60405180910390fd5b600354811480610215575060045481145b610254576040517f08c379a000000000000000000000000000000000000000000000000000000000815260040161024b90610ad9565b60405180910390fd5b734f96fe3b7a6cf9725f59d353f723c1bdb64ca6aa73ffffffffffffffffffffffffffffffffffffffff166323b872dd3330846040518463ffffffff1660e01b81526004016102a593929190610a21565b602060405180830381600087803b1580156102bf57600080fd5b505af11580156102d3573d6000803e3d6000fd5b505050506040513d601f19601f820116820180604052508101906102f79190610844565b50610301336105fd565b5080600560008282546103149190610bbe565b9250508190555060018060003373ffffffffffffffffffffffffffffffffffffffff1673ffffffffffffffffffffffffffffffffffffffff16815260200190815260200160002060006101000a81548160ff02191690831515021790555080600260003373ffffffffffffffffffffffffffffffffffffffff1673ffffffffffffffffffffffffffffffffffffffff168152602001908152602001600020819055507f7e215c26271352f4ad032ecbcf9fdd4bf094711763efb12cddbb234905037edc33826040516103e7929190610a58565b60405180910390a150565b6000818154811061040257600080fd5b90600052602060002090600202016000915090508060000160009054906101000a900473ffffffffffffffffffffffffffffffffffffffff16908060010154905082565b6000600160008373ffffffffffffffffffffffffffffffffffffffff1673ffffffffffffffffffffffffffffffffffffffff16815260200190815260200160002060009054906101000a900460ff166104d4576040517f08c379a00000000000000000000000000000000000000000000000000000000081526004016104cb90610b39565b60405180910390fd5b60019050919050565b60007f742fd0b902095029973fea833d828fe855bb719b704498c4fb99cbc7ceb6dc446005546040516105109190610b59565b60405180910390a1600554905090565b60606000805480602002602001604051908101604052809291908181526020016000905b828210156105d657838290600052602060002090600202016040518060400160405290816000820160009054906101000a900473ffffffffffffffffffffffffffffffffffffffff1673ffffffffffffffffffffffffffffffffffffffff1673ffffffffffffffffffffffffffffffffffffffff16815260200160018201548152505081526020019060010190610544565b50505050905090565b60055481565b734f96fe3b7a6cf9725f59d353f723c1bdb64ca6aa81565b6000600160008373ffffffffffffffffffffffffffffffffffffffff1673ffffffffffffffffffffffffffffffffffffffff16815260200190815260200160002060009054906101000a900460ff161561068c576040517f08c379a000000000000000000000000000000000000000000000000000000000815260040161068390610b19565b60405180910390fd5b6106946107ac565b82816000019073ffffffffffffffffffffffffffffffffffffffff16908173ffffffffffffffffffffffffffffffffffffffff1681525050600081908060018154018082558091505060019003906000526020600020906002020160009091909190915060008201518160000160006101000a81548173ffffffffffffffffffffffffffffffffffffffff021916908373ffffffffffffffffffffffffffffffffffffffff16021790555060208201518160010155505060018060008573ffffffffffffffffffffffffffffffffffffffff1673ffffffffffffffffffffffffffffffffffffffff16815260200190815260200160002060006101000a81548160ff0219169083151502179055506001915050919050565b6040518060400160405280600073ffffffffffffffffffffffffffffffffffffffff168152602001600081525090565b6000813590506107eb81610d79565b92915050565b60008151905061080081610d90565b92915050565b60008135905061081581610da7565b92915050565b60006020828403121561082d57600080fd5b600061083b848285016107dc565b91505092915050565b60006020828403121561085657600080fd5b6000610864848285016107f1565b91505092915050565b60006020828403121561087f57600080fd5b600061088d84828501610806565b91505092915050565b60006108a283836109d4565b60408301905092915050565b6108b781610c14565b82525050565b6108c681610c14565b82525050565b60006108d782610b84565b6108e18185610b9c565b93506108ec83610b74565b8060005b8381101561091d5781516109048882610896565b975061090f83610b8f565b9250506001810190506108f0565b5085935050505092915050565b61093381610c26565b82525050565b61094281610c5c565b82525050565b6000610955602283610bad565b915061096082610caf565b604082019050919050565b6000610978601a83610bad565b915061098382610cfe565b602082019050919050565b600061099b601383610bad565b91506109a682610d27565b602082019050919050565b60006109be601383610bad565b91506109c982610d50565b602082019050919050565b6040820160008201516109ea60008501826108ae565b5060208201516109fd6020850182610a03565b50505050565b610a0c81610c52565b82525050565b610a1b81610c52565b82525050565b6000606082019050610a3660008301866108bd565b610a4360208301856108bd565b610a506040830184610a12565b949350505050565b6000604082019050610a6d60008301856108bd565b610a7a6020830184610a12565b9392505050565b60006020820190508181036000830152610a9b81846108cc565b905092915050565b6000602082019050610ab8600083018461092a565b92915050565b6000602082019050610ad36000830184610939565b92915050565b60006020820190508181036000830152610af281610948565b9050919050565b60006020820190508181036000830152610b128161096b565b9050919050565b60006020820190508181036000830152610b328161098e565b9050919050565b60006020820190508181036000830152610b52816109b1565b9050919050565b6000602082019050610b6e6000830184610a12565b92915050565b6000819050602082019050919050565b600081519050919050565b6000602082019050919050565b600082825260208201905092915050565b600082825260208201905092915050565b6000610bc982610c52565b9150610bd483610c52565b9250827fffffffffffffffffffffffffffffffffffffffffffffffffffffffffffffffff03821115610c0957610c08610c80565b5b828201905092915050565b6000610c1f82610c32565b9050919050565b60008115159050919050565b600073ffffffffffffffffffffffffffffffffffffffff82169050919050565b6000819050919050565b6000610c6782610c6e565b9050919050565b6000610c7982610c32565b9050919050565b7f4e487b7100000000000000000000000000000000000000000000000000000000600052601160045260246000fd5b7f507572636861736520616d6f756e74206973206e6f7420353030206f7220313060008201527f3030000000000000000000000000000000000000000000000000000000000000602082015250565b7f5573657220616c7265616479207075726368617365642049444f000000000000600082015250565b7f5573657220616c72656164792065786973747300000000000000000000000000600082015250565b7f5573657220646f6573206e6f7420657869737400000000000000000000000000600082015250565b610d8281610c14565b8114610d8d57600080fd5b50565b610d9981610c26565b8114610da457600080fd5b50565b610db081610c52565b8114610dbb57600080fd5b5056fea2646970667358221220b3af12b6e5182158b191025349370a20c904e869a369a79a479abde0af4d43ec64736f6c63430008040033",
  "linkReferences": {},
  "deployedLinkReferences": {}
}